:020000020000FC
:1020000007EB0093E50000E10093E6000FE000938A
:10201000E70000E80093E40008950F921F920F93E9
:102020001F932F933F93AF93BF93EF93FF93125060
:10203000003249F00A3220F0013610F40C942410DA
:1020400000E60C9424100CE20A52000F000FE4E9A1
:10205000F0E20024E00FF01DACEEBB27212F169517
:10206000A10F34E000EF20FD0295059020FD0294C1
:102070001C90102210281C9215963A95B1F7FF91EA
:10208000EF91BF91AF913F912F911F910F911F90B1
:102090000F900895080A0A0E00080A0200000000C6
:1020A00000000A0001050A000800000409050505F2
:1020B0000801010001010E0101010B0100050B00E7
:1020C00001040B0101040F010101010001050F01D1
:1020D00001050B01000200040000000008000008D8
:1020E00000000A01000200040000000000000000DF
:1020F00001050F000109090301040401010901039D
:1021000001040E0101040E0001040D0100050F0081
:10211000000800020001050108040608000404018B
:1021200008070500000705080105050101050E0067
:102130000105050901050E08010200090108000258
:1021400000050501080404040005050C0802000C44
:102150000802000209000005010404010002000851
:10216000010101010000000000000001090F0F0F34
:040000000C9400015B
:040014000C944E01F9
:100200000FEF0DBF04E00EBF0E9400100E94950189
:100210000E9429010E9440010E9410010C943E019D
:1002200040910001403041F140E0409300010395CE
:100230000E94A501412D413041F04230B1F04330E0
:1002400089F0A130A9F00C9410010E9429010C94AE
:10025000100150E360E370E380E390E3A0E00E94CC
:1002600077010895A1E00C943801A0E00C941001EE
:100270000E9458010E9477010C9410010C943E01D9
:10028000F89408E00093B60001E00093700002E0EB
:100290000093B00000270DBB789408950F930FB71B
:1002A0000F9301E0009300010F910FBF0F9118957C
:1002B00001E0900F903409F0089590E301E0800F81
:1002C0008A3309F0089580E301E0700F763309F076
:1002D000089570E301E0600F6A3309F0089560E368
:1002E00001E0500F563309F0089555E3FFCF052F75
:1002F00012E00E940D10062F13E00E940D1001E085
:100300000093F400072F14E00E940D10082F15E051
:100310000E940D1016E09A3320F4092F0E940D1050
:10032000089509E30E940D1008951DB1137F0EB1C9
:100330000C601DB90EB900E000937F0014B11F726C
:1003400005B1006D14B905B908950F931F932F934C
:100350003F9303B12CB11FEF212E2A94F1F713B173
:100360003CB10117B1F72317A1F710E0112E00716E
:10037000003049F0022F2470203049F0087000301E
:1003800051F00C94CF0111E0112E0C94CF0112E02A
:10039000112E0C94CF0113E0112E0C94CF013F913C
:0803A0002F911F910F910895A8
:00000001FF
