:020000020000FC
:1020000007EB0093E50000E10093E6000FE000938A
:10201000E70000E80093E40008950F921F920F93E9
:102020001F932F933F93AF93BF93EF93FF93125060
:10203000003249F00A3220F0013610F40C942410DA
:1020400000E60C9424100CE20A52000F000FE4E9A1
:10205000F0E20024E00FF01DACEEBB27212F169517
:10206000A10F34E000EF20FD0295059020FD0294C1
:102070001C90102210281C9215963A95B1F7FF91EA
:10208000EF91BF91AF913F912F911F910F911F90B1
:102090000F900895080A0A0E00080A0200000000C6
:1020A00000000A0001050A000800000409050505F2
:1020B0000801010001010E0101010B0100050B00E7
:1020C00001040B0101040F010101010001050F01D1
:1020D00001050B01000200040000000008000008D8
:1020E00000000A01000200040000000000000000DF
:1020F00001050F000109090301040401010901039D
:1021000001040E0101040E0001040D0100050F0081
:10211000000800020001050108040608000404018B
:1021200008070500000705080105050101050E0067
:102130000105050901050E08010200090108000258
:1021400000050501080404040005050C0802000C44
:102150000802000209000005010404010002000851
:10216000010101010000000000000001090F0F0F34
:040000000C94250136
:100200004F4E445241204A452056454C4D49205AB4
:100210004B5553454E5920415353454D424C455241
:100220004953544120412052414420425920444FD7
:100230005354414C203320424F4459205A412054BA
:1002400055544F20554C4F4855000FEF0DBF04E05B
:100250000EBFE0E0F2E00E94001056E00E2E1F2ECE
:10026000352F0E943901E02DF12D05916AE00C94A3
:100270002E01303009F40895352E331A22E0320E63
:100280000591003079F0132D0E940D103A950C94D1
:1002900039017FEF8FEF8A95F1F77A95D9F76A9553
:0802A000C1F708950C9452010E
:00000001FF
